{
  "_format": "hh3-artifact-1",
  "contractName": "SentrixRegistry",
  "sourceName": "contracts/SentrixRegistry.sol",
  "abi": [
    {
      "inputs": [
        {
          "internalType": "uint256",
          "name": "assetId",
          "type": "uint256"
        }
      ],
      "name": "AssetNotFound",
      "type": "error"
    },
    {
      "inputs": [],
      "name": "InvalidMetadata",
      "type": "error"
    },
    {
      "inputs": [
        {
          "internalType": "address",
          "name": "caller",
          "type": "address"
        },
        {
          "internalType": "uint256",
          "name": "assetId",
          "type": "uint256"
        }
      ],
      "name": "NotAssetOwner",
      "type": "error"
    },
    {
      "anonymous": false,
      "inputs": [
        {
          "indexed": true,
          "internalType": "uint256",
          "name": "assetId",
          "type": "uint256"
        },
        {
          "indexed": false,
          "internalType": "string",
          "name": "metadataURI",
          "type": "string"
        }
      ],
      "name": "AssetMetadataUpdated",
      "type": "event"
    },
    {
      "anonymous": false,
      "inputs": [
        {
          "indexed": true,
          "internalType": "uint256",
          "name": "assetId",
          "type": "uint256"
        },
        {
          "indexed": true,
          "internalType": "address",
          "name": "owner",
          "type": "address"
        },
        {
          "indexed": false,
          "internalType": "string",
          "name": "title",
          "type": "string"
        },
        {
          "indexed": false,
          "internalType": "string",
          "name": "category",
          "type": "string"
        },
        {
          "indexed": false,
          "internalType": "string",
          "name": "metadataURI",
          "type": "string"
        }
      ],
      "name": "AssetRegistered",
      "type": "event"
    },
    {
      "inputs": [
        {
          "internalType": "uint256",
          "name": "assetId",
          "type": "uint256"
        }
      ],
      "name": "assetOwner",
      "outputs": [
        {
          "internalType": "address",
          "name": "",
          "type": "address"
        }
      ],
      "stateMutability": "view",
      "type": "function"
    },
    {
      "inputs": [
        {
          "internalType": "uint256",
          "name": "assetId",
          "type": "uint256"
        }
      ],
      "name": "getAsset",
      "outputs": [
        {
          "components": [
            {
              "internalType": "uint256",
              "name": "id",
              "type": "uint256"
            },
            {
              "internalType": "address",
              "name": "owner",
              "type": "address"
            },
            {
              "internalType": "string",
              "name": "title",
              "type": "string"
            },
            {
              "internalType": "string",
              "name": "category",
              "type": "string"
            },
            {
              "internalType": "string",
              "name": "metadataURI",
              "type": "string"
            },
            {
              "internalType": "uint64",
              "name": "createdAt",
              "type": "uint64"
            }
          ],
          "internalType": "struct SentrixRegistry.Asset",
          "name": "",
          "type": "tuple"
        }
      ],
      "stateMutability": "view",
      "type": "function"
    },
    {
      "inputs": [
        {
          "internalType": "address",
          "name": "owner",
          "type": "address"
        }
      ],
      "name": "getAssetsByOwner",
      "outputs": [
        {
          "components": [
            {
              "internalType": "uint256",
              "name": "id",
              "type": "uint256"
            },
            {
              "internalType": "address",
              "name": "owner",
              "type": "address"
            },
            {
              "internalType": "string",
              "name": "title",
              "type": "string"
            },
            {
              "internalType": "string",
              "name": "category",
              "type": "string"
            },
            {
              "internalType": "string",
              "name": "metadataURI",
              "type": "string"
            },
            {
              "internalType": "uint64",
              "name": "createdAt",
              "type": "uint64"
            }
          ],
          "internalType": "struct SentrixRegistry.Asset[]",
          "name": "assets",
          "type": "tuple[]"
        }
      ],
      "stateMutability": "view",
      "type": "function"
    },
    {
      "inputs": [
        {
          "internalType": "string",
          "name": "title",
          "type": "string"
        },
        {
          "internalType": "string",
          "name": "category",
          "type": "string"
        },
        {
          "internalType": "string",
          "name": "metadataURI",
          "type": "string"
        }
      ],
      "name": "registerAsset",
      "outputs": [
        {
          "internalType": "uint256",
          "name": "assetId",
          "type": "uint256"
        }
      ],
      "stateMutability": "nonpayable",
      "type": "function"
    },
    {
      "inputs": [],
      "name": "totalAssets",
      "outputs": [
        {
          "internalType": "uint256",
          "name": "",
          "type": "uint256"
        }
      ],
      "stateMutability": "view",
      "type": "function"
    },
    {
      "inputs": [
        {
          "internalType": "uint256",
          "name": "assetId",
          "type": "uint256"
        },
        {
          "internalType": "string",
          "name": "metadataURI",
          "type": "string"
        }
      ],
      "name": "updateMetadata",
      "outputs": [],
      "stateMutability": "nonpayable",
      "type": "function"
    }
  ],
  "bytecode": "0x608060405260015f55348015610013575f80fd5b506118da806100215f395ff3fe608060405234801561000f575f80fd5b5060043610610060575f3560e01c806301e1d11414610064578063276f0934146100825780632a0ee644146100b257806353c8388e146100e2578063881d4c6e146100fe578063eac8f5b81461012e575b5f80fd5b61006c61015e565b6040516100799190610da2565b60405180910390f35b61009c60048036038101906100979190610e1d565b610172565b6040516100a99190611061565b60405180910390f35b6100cc60048036038101906100c791906110ab565b6104c4565b6040516100d991906110e5565b60405180910390f35b6100fc60048036038101906100f7919061115f565b610575565b005b610118600480360381019061011391906111bc565b610741565b6040516101259190610da2565b60405180910390f35b610148600480360381019061014391906110ab565b610a54565b6040516101559190611300565b60405180910390f35b5f60015f5461016d919061134d565b905090565b60605f60025f8473ffffffffffffffffffffffffffffffffffffffff1673ffffffffffffffffffffffffffffffffffffffff1681526020019081526020015f209050808054905067ffffffffffffffff8111156101d2576101d1611380565b5b60405190808252806020026020018201604052801561020b57816020015b6101f8610d37565b8152602001906001900390816101f05790505b5091505f5b81805490508110156104bd5760015f838381548110610232576102316113ad565b5b905f5260205f20015481526020019081526020015f206040518060c00160405290815f8201548152602001600182015f9054906101000a900473ffffffffffffffffffffffffffffffffffffffff1673ffffffffffffffffffffffffffffffffffffffff1673ffffffffffffffffffffffffffffffffffffffff1681526020016002820180546102c190611407565b80601f01602080910402602001604051908101604052809291908181526020018280546102ed90611407565b80156103385780601f1061030f57610100808354040283529160200191610338565b820191905f5260205f20905b81548152906001019060200180831161031b57829003601f168201915b5050505050815260200160038201805461035190611407565b80601f016020809104026020016040519081016040528092919081815260200182805461037d90611407565b80156103c85780601f1061039f576101008083540402835291602001916103c8565b820191905f5260205f20905b8154815290600101906020018083116103ab57829003601f168201915b505050505081526020016004820180546103e190611407565b80601f016020809104026020016040519081016040528092919081815260200182805461040d90611407565b80156104585780601f1061042f57610100808354040283529160200191610458565b820191905f5260205f20905b81548152906001019060200180831161043b57829003601f168201915b50505050508152602001600582015f9054906101000a900467ffffffffffffffff1667ffffffffffffffff1667ffffffffffffffff16815250508382815181106104a5576104a46113ad565b5b60200260200101819052508080600101915050610210565b5050919050565b5f8060015f8481526020019081526020015f206001015f9054906101000a900473ffffffffffffffffffffffffffffffffffffffff1690505f73ffffffffffffffffffffffffffffffffffffffff168173ffffffffffffffffffffffffffffffffffffffff160361056c57826040517fad917ae70000000000000000000000000000000000000000000000000000000081526004016105639190610da2565b60405180910390fd5b80915050919050565b5f82829050036105b1576040517fbcecb64a00000000000000000000000000000000000000000000000000000000815260040160405180910390fd5b5f60015f8581526020019081526020015f2090505f73ffffffffffffffffffffffffffffffffffffffff16816001015f9054906101000a900473ffffffffffffffffffffffffffffffffffffffff1673ffffffffffffffffffffffffffffffffffffffff160361065857836040517fad917ae700000000000000000000000000000000000000000000000000000000815260040161064f9190610da2565b60405180910390fd5b3373ffffffffffffffffffffffffffffffffffffffff16816001015f9054906101000a900473ffffffffffffffffffffffffffffffffffffffff1673ffffffffffffffffffffffffffffffffffffffff16146106ed5733846040517fd10b1c590000000000000000000000000000000000000000000000000000000081526004016106e4929190611437565b60405180910390fd5b8282826004019182610700929190611605565b50837fb24c12af46d9d1b315bd362fc4e303af4f63e4dcea5761c8ddd6da7abb9d9059848460405161073392919061171c565b60405180910390a250505050565b5f8087879050148061075557505f83839050145b1561078c576040517fbcecb64a00000000000000000000000000000000000000000000000000000000815260040160405180910390fd5b5f8081548092919061079d9061173e565b9190505590505f6040518060c001604052808381526020013373ffffffffffffffffffffffffffffffffffffffff16815260200189898080601f0160208091040260200160405190810160405280939291908181526020018383808284375f81840152601f19601f82011690508083019250505050505050815260200187878080601f0160208091040260200160405190810160405280939291908181526020018383808284375f81840152601f19601f82011690508083019250505050505050815260200185858080601f0160208091040260200160405190810160405280939291908181526020018383808284375f81840152601f19601f8201169050808301925050505050505081526020014267ffffffffffffffff1681525090508060015f8481526020019081526020015f205f820151815f01556020820151816001015f6101000a81548173ffffffffffffffffffffffffffffffffffffffff021916908373ffffffffffffffffffffffffffffffffffffffff16021790555060408201518160020190816109319190611785565b5060608201518160030190816109479190611785565b50608082015181600401908161095d9190611785565b5060a0820151816005015f6101000a81548167ffffffffffffffff021916908367ffffffffffffffff16021790555090505060025f3373ffffffffffffffffffffffffffffffffffffffff1673ffffffffffffffffffffffffffffffffffffffff1681526020019081526020015f2082908060018154018082558091505060019003905f5260205f20015f90919091909150553373ffffffffffffffffffffffffffffffffffffffff16827ff79ac203ee62d6876ae73dbdb9777a64bd6b502dc23da2acb7ba3592608f841a8a8a8a8a8a8a604051610a4196959493929190611854565b60405180910390a3509695505050505050565b610a5c610d37565b5f60015f8481526020019081526020015f206040518060c00160405290815f8201548152602001600182015f9054906101000a900473ffffffffffffffffffffffffffffffffffffffff1673ffffffffffffffffffffffffffffffffffffffff1673ffffffffffffffffffffffffffffffffffffffff168152602001600282018054610ae790611407565b80601f0160208091040260200160405190810160405280929190818152602001828054610b1390611407565b8015610b5e5780601f10610b3557610100808354040283529160200191610b5e565b820191905f5260205f20905b815481529060010190602001808311610b4157829003601f168201915b50505050508152602001600382018054610b7790611407565b80601f0160208091040260200160405190810160405280929190818152602001828054610ba390611407565b8015610bee5780601f10610bc557610100808354040283529160200191610bee565b820191905f5260205f20905b815481529060010190602001808311610bd157829003601f168201915b50505050508152602001600482018054610c0790611407565b80601f0160208091040260200160405190810160405280929190818152602001828054610c3390611407565b8015610c7e5780601f10610c5557610100808354040283529160200191610c7e565b820191905f5260205f20905b815481529060010190602001808311610c6157829003601f168201915b50505050508152602001600582015f9054906101000a900467ffffffffffffffff1667ffffffffffffffff1667ffffffffffffffff168152505090505f73ffffffffffffffffffffffffffffffffffffffff16816020015173ffffffffffffffffffffffffffffffffffffffff1603610d2e57826040517fad917ae7000000000000000000000000000000000000000000000000000000008152600401610d259190610da2565b60405180910390fd5b80915050919050565b6040518060c001604052805f81526020015f73ffffffffffffffffffffffffffffffffffffffff1681526020016060815260200160608152602001606081526020015f67ffffffffffffffff1681525090565b5f819050919050565b610d9c81610d8a565b82525050565b5f602082019050610db55f830184610d93565b92915050565b5f80fd5b5f80fd5b5f73ffffffffffffffffffffffffffffffffffffffff82169050919050565b5f610dec82610dc3565b9050919050565b610dfc81610de2565b8114610e06575f80fd5b50565b5f81359050610e1781610df3565b92915050565b5f60208284031215610e3257610e31610dbb565b5b5f610e3f84828501610e09565b91505092915050565b5f81519050919050565b5f82825260208201905092915050565b5f819050602082019050919050565b610e7a81610d8a565b82525050565b610e8981610de2565b82525050565b5f81519050919050565b5f82825260208201905092915050565b5f5b83811015610ec6578082015181840152602081019050610eab565b5f8484015250505050565b5f601f19601f8301169050919050565b5f610eeb82610e8f565b610ef58185610e99565b9350610f05818560208601610ea9565b610f0e81610ed1565b840191505092915050565b5f67ffffffffffffffff82169050919050565b610f3581610f19565b82525050565b5f60c083015f830151610f505f860182610e71565b506020830151610f636020860182610e80565b5060408301518482036040860152610f7b8282610ee1565b91505060608301518482036060860152610f958282610ee1565b91505060808301518482036080860152610faf8282610ee1565b91505060a0830151610fc460a0860182610f2c565b508091505092915050565b5f610fda8383610f3b565b905092915050565b5f602082019050919050565b5f610ff882610e48565b6110028185610e52565b93508360208202850161101485610e62565b805f5b8581101561104f57848403895281516110308582610fcf565b945061103b83610fe2565b925060208a01995050600181019050611017565b50829750879550505050505092915050565b5f6020820190508181035f8301526110798184610fee565b905092915050565b61108a81610d8a565b8114611094575f80fd5b50565b5f813590506110a581611081565b92915050565b5f602082840312156110c0576110bf610dbb565b5b5f6110cd84828501611097565b91505092915050565b6110df81610de2565b82525050565b5f6020820190506110f85f8301846110d6565b92915050565b5f80fd5b5f80fd5b5f80fd5b5f8083601f84011261111f5761111e6110fe565b5b8235905067ffffffffffffffff81111561113c5761113b611102565b5b60208301915083600182028301111561115857611157611106565b5b9250929050565b5f805f6040848603121561117657611175610dbb565b5b5f61118386828701611097565b935050602084013567ffffffffffffffff8111156111a4576111a3610dbf565b5b6111b08682870161110a565b92509250509250925092565b5f805f805f80606087890312156111d6576111d5610dbb565b5b5f87013567ffffffffffffffff8111156111f3576111f2610dbf565b5b6111ff89828a0161110a565b9650965050602087013567ffffffffffffffff81111561122257611221610dbf565b5b61122e89828a0161110a565b9450945050604087013567ffffffffffffffff81111561125157611250610dbf565b5b61125d89828a0161110a565b92509250509295509295509295565b5f60c083015f8301516112815f860182610e71565b5060208301516112946020860182610e80565b50604083015184820360408601526112ac8282610ee1565b915050606083015184820360608601526112c68282610ee1565b915050608083015184820360808601526112e08282610ee1565b91505060a08301516112f560a0860182610f2c565b508091505092915050565b5f6020820190508181035f830152611318818461126c565b905092915050565b7f4e487b71000000000000000000000000000000000000000000000000000000005f52601160045260245ffd5b5f61135782610d8a565b915061136283610d8a565b925082820390508181111561137a57611379611320565b5b92915050565b7f4e487b71000000000000000000000000000000000000000000000000000000005f52604160045260245ffd5b7f4e487b71000000000000000000000000000000000000000000000000000000005f52603260045260245ffd5b7f4e487b71000000000000000000000000000000000000000000000000000000005f52602260045260245ffd5b5f600282049050600182168061141e57607f821691505b602082108103611431576114306113da565b5b50919050565b5f60408201905061144a5f8301856110d6565b6114576020830184610d93565b9392505050565b5f82905092915050565b5f819050815f5260205f209050919050565b5f6020601f8301049050919050565b5f82821b905092915050565b5f600883026114c47fffffffffffffffffffffffffffffffffffffffffffffffffffffffffffffffff82611489565b6114ce8683611489565b95508019841693508086168417925050509392505050565b5f819050919050565b5f6115096115046114ff84610d8a565b6114e6565b610d8a565b9050919050565b5f819050919050565b611522836114ef565b61153661152e82611510565b848454611495565b825550505050565b5f90565b61154a61153e565b611555818484611519565b505050565b5b818110156115785761156d5f82611542565b60018101905061155b565b5050565b601f8211156115bd5761158e81611468565b6115978461147a565b810160208510156115a6578190505b6115ba6115b28561147a565b83018261155a565b50505b505050565b5f82821c905092915050565b5f6115dd5f19846008026115c2565b1980831691505092915050565b5f6115f583836115ce565b9150826002028217905092915050565b61160f838361145e565b67ffffffffffffffff81111561162857611627611380565b5b6116328254611407565b61163d82828561157c565b5f601f83116001811461166a575f8415611658578287013590505b61166285826115ea565b8655506116c9565b601f19841661167886611468565b5f5b8281101561169f5784890135825560018201915060208501945060208101905061167a565b868310156116bc57848901356116b8601f8916826115ce565b8355505b6001600288020188555050505b50505050505050565b5f82825260208201905092915050565b828183375f83830152505050565b5f6116fb83856116d2565b93506117088385846116e2565b61171183610ed1565b840190509392505050565b5f6020820190508181035f8301526117358184866116f0565b90509392505050565b5f61174882610d8a565b91507fffffffffffffffffffffffffffffffffffffffffffffffffffffffffffffffff820361177a57611779611320565b5b600182019050919050565b61178e82610e8f565b67ffffffffffffffff8111156117a7576117a6611380565b5b6117b18254611407565b6117bc82828561157c565b5f60209050601f8311600181146117ed575f84156117db578287015190505b6117e585826115ea565b86555061184c565b601f1984166117fb86611468565b5f5b82811015611822578489015182556001820191506020850194506020810190506117fd565b8683101561183f578489015161183b601f8916826115ce565b8355505b6001600288020188555050505b505050505050565b5f6060820190508181035f83015261186d81888a6116f0565b905081810360208301526118828186886116f0565b905081810360408301526118978184866116f0565b905097965050505050505056fea264697066735822122018e7859f6ed3666053bd982d337cc651e12ad733c9ba03e5cc11d151389df6f464736f6c63430008180033",
  "linkReferences": {},
  "deployedLinkReferences": {},
  "immutableReferences": {},
  "inputSourceName": "project/contracts/SentrixRegistry.sol",
  "buildInfoId": "solc-0_8_24-2f6267b40b73f0907fdd856d649c658994a20671"
}